#echo "8=FIX.4.1|9=61|35=A|34=1|49=EXEC|52=20121105-23:24:06|56=BANZAI|98=0|108=30|10=003|8=FIX.4.1|9=61|35=A|34=1|49=BANZAI|" | \
echo "8=FIX.4.1|9=104|35=F|34=7|49=BANZAI|52=20121105-23:25:25|56=EXEC|11=1352157925309|38=10000|41=1352157912357|54=1|55=SPY|10=197|8=FIX.4.1|9=82|35=0|34=9|49=EXEC|52=20121105-23:25:25|56=BANZAI|45=7|45=7|45=7|58=Unsupported message type|10=002|" | \
node fix-log-decorate.mjs  --uselookup=1 --usenumber=1 --usevalue=1 --delim="|" --usenewline=1 --skip="9 10" --skipseen=0

echo "20221102-19:14:08.000655 REQUEST_MD.PROVIDER.inbound 8=FIX.4.4|9=00690|35=W|49=PROVIDER|56=REQUEST_MD|34=106|52=20221102-19:14:08.560|262=17be55cf-92ae-454e-866f-3b0b023dde25|537=7|42=20221102-19:14:08.558|1=demo|55=ETHUSD|207=WINT|117=1666840914216985|268=16|269=0|270=1583.44|271=1|290=1|269=0|270=1583.39|271=4|290=2|269=0|270=1583.34|271=8|290=3|269=0|270=1583.29|271=10|290=4|269=0|270=1583.24|271=20|290=5|269=0|270=1583.19|271=30|290=6|269=0|270=1583.14|271=50|290=7|269=0|270=1583.09|271=80|290=8|269=1|270=1583.48|271=1|290=1|269=1|270=1583.53|271=4|290=2|269=1|270=1583.58|271=8|290=3|269=1|270=1583.63|271=10|290=4|269=1|270=1583.68|271=20|290=5|269=1|270=1583.73|271=30|290=6|269=1|270=1583.78|271=50|290=7|269=1|270=1583.83|271=80|290=8|10=223|20221102-19:14:10.000657 REQUEST_MD.PROVIDER.inbound 8=FIX.4.4|9=00686|35=W|49=PROVIDER|49=PROVIDER|56=REQUEST_MD|34=107|52=20221102-19:14:10.560|262=17be55cf-92ae-454e-866f-3b0b023dde25|537=7|42=20221102-19:14:10.558|1=demo|55=ETHUSD|207=WINT|117=1666840914217039|268=16|269=0|270=1583.45|271=1|290=1|269=0|270=1583.4|271=4|290=2|269=0|270=1583.35|271=8|290=3|269=0|270=1583.3|271=10|290=4|269=0|270=1583.25|271=20|290=5|269=0|270=1583.2|271=30|290=6|269=0|270=1583.15|271=50|290=7|269=0|270=1583.1|271=80|290=8|269=1|270=1583.46|271=1|290=1|269=1|270=1583.51|271=4|290=2|269=1|270=1583.56|271=8|290=3|269=1|270=1583.61|271=10|290=4|269=1|270=1583.66|271=20|290=5|269=1|270=1583.71|271=30|290=6|269=1|270=1583.76|271=50|290=7|269=1|270=1583.81|271=80|290=8|10=226|" | node fix-log-decorate.mjs --skipseen=2 --delim=" " --usenewline=0 --highlight="ETHUSD"

echo "8=FIX.4.4\x019=168\x0135=D\x0134=30\x0149=REQUEST_OR\x0152=20221104-18:49:13.249\x0156=PROVIDER\x011=demo\x0111=91731b25ece24b\x0138=0.01\x0140=2\x0144=21029.35\x0154=1\x0155=BTCUSD\x0159=3\x0160=20221104-18:49:13.118\x0110=086\x01" | node fix-log-decorate.mjs --highlight="Symbol 21029.35 60" --skip="8 9 60"
