echo "8=FIX.4.1|9=61|35=A|34=1|49=EXEC|52=20121105-23:24:06|56=BANZAI|98=0|108=30|10=003|8=FIX.4.1|9=61|35=A|34=1|49=BANZAI|" | \
node fix-log-decorate.mjs  --uselookup=1 --usenumber=1 --usevalue=1 --delim="|" --usenewline=1